{
  "_format": "hh-sol-artifact-1",
  "contractName": "Dwitter",
  "sourceName": "contracts/Dwitter.sol",
  "abi": [
    {
      "inputs": [],
      "stateMutability": "nonpayable",
      "type": "constructor"
    },
    {
      "anonymous": false,
      "inputs": [
        {
          "indexed": false,
          "internalType": "uint256",
          "name": "id",
          "type": "uint256"
        },
        {
          "indexed": false,
          "internalType": "string",
          "name": "hash",
          "type": "string"
        },
        {
          "indexed": false,
          "internalType": "string",
          "name": "description",
          "type": "string"
        },
        {
          "indexed": false,
          "internalType": "uint256",
          "name": "likes",
          "type": "uint256"
        },
        {
          "indexed": false,
          "internalType": "address",
          "name": "author",
          "type": "address"
        },
        {
          "indexed": false,
          "internalType": "uint256",
          "name": "timestamp",
          "type": "uint256"
        }
      ],
      "name": "TweetCreated",
      "type": "event"
    },
    {
      "anonymous": false,
      "inputs": [
        {
          "indexed": false,
          "internalType": "uint256",
          "name": "id",
          "type": "uint256"
        },
        {
          "indexed": false,
          "internalType": "string",
          "name": "hash",
          "type": "string"
        },
        {
          "indexed": false,
          "internalType": "string",
          "name": "description",
          "type": "string"
        },
        {
          "indexed": false,
          "internalType": "uint256",
          "name": "likes",
          "type": "uint256"
        },
        {
          "indexed": false,
          "internalType": "address",
          "name": "author",
          "type": "address"
        }
      ],
      "name": "TweetLiked",
      "type": "event"
    },
    {
      "inputs": [
        {
          "internalType": "uint256",
          "name": "_id",
          "type": "uint256"
        }
      ],
      "name": "LikeTweet",
      "outputs": [],
      "stateMutability": "payable",
      "type": "function"
    },
    {
      "inputs": [],
      "name": "getTweets",
      "outputs": [
        {
          "components": [
            {
              "internalType": "uint256",
              "name": "id",
              "type": "uint256"
            },
            {
              "internalType": "string",
              "name": "hash",
              "type": "string"
            },
            {
              "internalType": "string",
              "name": "description",
              "type": "string"
            },
            {
              "internalType": "uint256",
              "name": "likes",
              "type": "uint256"
            },
            {
              "internalType": "address",
              "name": "author",
              "type": "address"
            },
            {
              "internalType": "uint256",
              "name": "timestamp",
              "type": "uint256"
            }
          ],
          "internalType": "struct Dwitter.Tweet[]",
          "name": "",
          "type": "tuple[]"
        }
      ],
      "stateMutability": "view",
      "type": "function"
    },
    {
      "inputs": [],
      "name": "name",
      "outputs": [
        {
          "internalType": "string",
          "name": "",
          "type": "string"
        }
      ],
      "stateMutability": "view",
      "type": "function"
    },
    {
      "inputs": [
        {
          "internalType": "string",
          "name": "_imgHash",
          "type": "string"
        },
        {
          "internalType": "string",
          "name": "_description",
          "type": "string"
        }
      ],
      "name": "postTweet",
      "outputs": [],
      "stateMutability": "nonpayable",
      "type": "function"
    },
    {
      "inputs": [],
      "name": "tweetCount",
      "outputs": [
        {
          "internalType": "uint256",
          "name": "",
          "type": "uint256"
        }
      ],
      "stateMutability": "view",
      "type": "function"
    },
    {
      "inputs": [
        {
          "internalType": "uint256",
          "name": "",
          "type": "uint256"
        }
      ],
      "name": "tweets",
      "outputs": [
        {
          "internalType": "uint256",
          "name": "id",
          "type": "uint256"
        },
        {
          "internalType": "string",
          "name": "hash",
          "type": "string"
        },
        {
          "internalType": "string",
          "name": "description",
          "type": "string"
        },
        {
          "internalType": "uint256",
          "name": "likes",
          "type": "uint256"
        },
        {
          "internalType": "address",
          "name": "author",
          "type": "address"
        },
        {
          "internalType": "uint256",
          "name": "timestamp",
          "type": "uint256"
        }
      ],
      "stateMutability": "view",
      "type": "function"
    }
  ],
  "bytecode": "0x608060405260006001553480156200001657600080fd5b506040518060400160405280600781526020017f447769747465720000000000000000000000000000000000000000000000000081525060009080519060200190620000649291906200006b565b5062000180565b82805462000079906200011b565b90600052602060002090601f0160209004810192826200009d5760008555620000e9565b82601f10620000b857805160ff1916838001178555620000e9565b82800160010185558215620000e9579182015b82811115620000e8578251825591602001919060010190620000cb565b5b509050620000f89190620000fc565b5090565b5b8082111562000117576000816000905550600101620000fd565b5090565b600060028204905060018216806200013457607f821691505b602082108114156200014b576200014a62000151565b5b50919050565b7f4e487b7100000000000000000000000000000000000000000000000000000000600052602260045260246000fd5b6112b980620001906000396000f3fe6080604052600436106100555760003560e01c806306fdde031461005a5780633c64a17d146100855780634a7782b3146100ae578063ce284544146100d9578063e8d857b0146100f5578063fc86741f14610137575b600080fd5b34801561006657600080fd5b5061006f610162565b60405161007c9190610e04565b60405180910390f35b34801561009157600080fd5b506100ac60048036038101906100a79190610b77565b6101f0565b005b3480156100ba57600080fd5b506100c36103aa565b6040516100d09190610e26565b60405180910390f35b6100f360048036038101906100ee9190610be3565b6103b0565b005b34801561010157600080fd5b5061011c60048036038101906101179190610be3565b6106f4565b60405161012e96959493929190610f11565b60405180910390f35b34801561014357600080fd5b5061014c610860565b6040516101599190610de2565b60405180910390f35b6000805461016f90611122565b80601f016020809104026020016040519081016040528092919081815260200182805461019b90611122565b80156101e85780601f106101bd576101008083540402835291602001916101e8565b820191906000526020600020905b8154815290600101906020018083116101cb57829003601f168201915b505050505081565b60008151116101fe57600080fd5b600073ffffffffffffffffffffffffffffffffffffffff163373ffffffffffffffffffffffffffffffffffffffff16141561023857600080fd5b6001600081548092919061024b90611185565b919050555060036040518060c001604052806001548152602001848152602001838152602001600081526020013373ffffffffffffffffffffffffffffffffffffffff1681526020014281525090806001815401808255809150506001900390600052602060002090600602016000909190919091506000820151816000015560208201518160010190805190602001906102e7929190610a57565b506040820151816002019080519060200190610304929190610a57565b506060820151816003015560808201518160040160006101000a81548173ffffffffffffffffffffffffffffffffffffffff021916908373ffffffffffffffffffffffffffffffffffffffff16021790555060a0820151816005015550507f48bdebf526a635cda553ebb0563e6f6f8c18250d398fac6edb171e9a2630d42f60015483836000334260405161039e96959493929190610e41565b60405180910390a15050565b60015481565b6000811180156103c257506001548111155b6103cb57600080fd5b6000600260008381526020019081526020016000206040518060c00160405290816000820154815260200160018201805461040590611122565b80601f016020809104026020016040519081016040528092919081815260200182805461043190611122565b801561047e5780601f106104535761010080835404028352916020019161047e565b820191906000526020600020905b81548152906001019060200180831161046157829003601f168201915b5050505050815260200160028201805461049790611122565b80601f01602080910402602001604051908101604052809291908181526020018280546104c390611122565b80156105105780601f106104e557610100808354040283529160200191610510565b820191906000526020600020905b8154815290600101906020018083116104f357829003601f168201915b50505050508152602001600382015481526020016004820160009054906101000a900473ffffffffffffffffffffffffffffffffffffffff1673ffffffffffffffffffffffffffffffffffffffff1673ffffffffffffffffffffffffffffffffffffffff16815260200160058201548152505090506000816080015190508073ffffffffffffffffffffffffffffffffffffffff166108fc349081150290604051600060405180830381858888f193505050501580156105d4573d6000803e3d6000fd5b503482606001516105e5919061103c565b8260600181815250508160026000858152602001908152602001600020600082015181600001556020820151816001019080519060200190610628929190610a57565b506040820151816002019080519060200190610645929190610a57565b506060820151816003015560808201518160040160006101000a81548173ffffffffffffffffffffffffffffffffffffffff021916908373ffffffffffffffffffffffffffffffffffffffff16021790555060a082015181600501559050507f4343a18e7d98bf76f9eb6e4630fa3fdb100f9a2d2e8dc06e78340b98ca66e4cc83836020015184604001518560600151856040516106e7959493929190610eb0565b60405180910390a1505050565b600260205280600052604060002060009150905080600001549080600101805461071d90611122565b80601f016020809104026020016040519081016040528092919081815260200182805461074990611122565b80156107965780601f1061076b57610100808354040283529160200191610796565b820191906000526020600020905b81548152906001019060200180831161077957829003601f168201915b5050505050908060020180546107ab90611122565b80601f01602080910402602001604051908101604052809291908181526020018280546107d790611122565b80156108245780601f106107f957610100808354040283529160200191610824565b820191906000526020600020905b81548152906001019060200180831161080757829003601f168201915b5050505050908060030154908060040160009054906101000a900473ffffffffffffffffffffffffffffffffffffffff16908060050154905086565b60606003805480602002602001604051908101604052809291908181526020016000905b82821015610a4e57838290600052602060002090600602016040518060c0016040529081600082015481526020016001820180546108c190611122565b80601f01602080910402602001604051908101604052809291908181526020018280546108ed90611122565b801561093a5780601f1061090f5761010080835404028352916020019161093a565b820191906000526020600020905b81548152906001019060200180831161091d57829003601f168201915b5050505050815260200160028201805461095390611122565b80601f016020809104026020016040519081016040528092919081815260200182805461097f90611122565b80156109cc5780601f106109a1576101008083540402835291602001916109cc565b820191906000526020600020905b8154815290600101906020018083116109af57829003601f168201915b50505050508152602001600382015481526020016004820160009054906101000a900473ffffffffffffffffffffffffffffffffffffffff1673ffffffffffffffffffffffffffffffffffffffff1673ffffffffffffffffffffffffffffffffffffffff16815260200160058201548152505081526020019060010190610884565b50505050905090565b828054610a6390611122565b90600052602060002090601f016020900481019282610a855760008555610acc565b82601f10610a9e57805160ff1916838001178555610acc565b82800160010185558215610acc579182015b82811115610acb578251825591602001919060010190610ab0565b5b509050610ad99190610add565b5090565b5b80821115610af6576000816000905550600101610ade565b5090565b6000610b0d610b0884610fa5565b610f80565b905082815260208101848484011115610b2557600080fd5b610b308482856110e0565b509392505050565b600082601f830112610b4957600080fd5b8135610b59848260208601610afa565b91505092915050565b600081359050610b718161126c565b92915050565b60008060408385031215610b8a57600080fd5b600083013567ffffffffffffffff811115610ba457600080fd5b610bb085828601610b38565b925050602083013567ffffffffffffffff811115610bcd57600080fd5b610bd985828601610b38565b9150509250929050565b600060208284031215610bf557600080fd5b6000610c0384828501610b62565b91505092915050565b6000610c188383610d34565b905092915050565b610c2981611092565b82525050565b610c3881611092565b82525050565b6000610c4982610fe6565b610c538185611009565b935083602082028501610c6585610fd6565b8060005b85811015610ca15784840389528151610c828582610c0c565b9450610c8d83610ffc565b925060208a01995050600181019050610c69565b50829750879550505050505092915050565b610cbc816110ce565b82525050565b6000610ccd82610ff1565b610cd7818561101a565b9350610ce78185602086016110ef565b610cf08161125b565b840191505092915050565b6000610d0682610ff1565b610d10818561102b565b9350610d208185602086016110ef565b610d298161125b565b840191505092915050565b600060c083016000830151610d4c6000860182610dc4565b5060208301518482036020860152610d648282610cc2565b91505060408301518482036040860152610d7e8282610cc2565b9150506060830151610d936060860182610dc4565b506080830151610da66080860182610c20565b5060a0830151610db960a0860182610dc4565b508091505092915050565b610dcd816110c4565b82525050565b610ddc816110c4565b82525050565b60006020820190508181036000830152610dfc8184610c3e565b905092915050565b60006020820190508181036000830152610e1e8184610cfb565b905092915050565b6000602082019050610e3b6000830184610dd3565b92915050565b600060c082019050610e566000830189610dd3565b8181036020830152610e688188610cfb565b90508181036040830152610e7c8187610cfb565b9050610e8b6060830186610cb3565b610e986080830185610c2f565b610ea560a0830184610dd3565b979650505050505050565b600060a082019050610ec56000830188610dd3565b8181036020830152610ed78187610cfb565b90508181036040830152610eeb8186610cfb565b9050610efa6060830185610dd3565b610f076080830184610c2f565b9695505050505050565b600060c082019050610f266000830189610dd3565b8181036020830152610f388188610cfb565b90508181036040830152610f4c8187610cfb565b9050610f5b6060830186610dd3565b610f686080830185610c2f565b610f7560a0830184610dd3565b979650505050505050565b6000610f8a610f9b565b9050610f968282611154565b919050565b6000604051905090565b600067ffffffffffffffff821115610fc057610fbf61122c565b5b610fc98261125b565b9050602081019050919050565b6000819050602082019050919050565b600081519050919050565b600081519050919050565b6000602082019050919050565b600082825260208201905092915050565b600082825260208201905092915050565b600082825260208201905092915050565b6000611047826110c4565b9150611052836110c4565b9250827fffffffffffffffffffffffffffffffffffffffffffffffffffffffffffffffff03821115611087576110866111ce565b5b828201905092915050565b600061109d826110a4565b9050919050565b600073ffffffffffffffffffffffffffffffffffffffff82169050919050565b6000819050919050565b60006110d9826110c4565b9050919050565b82818337600083830152505050565b60005b8381101561110d5780820151818401526020810190506110f2565b8381111561111c576000848401525b50505050565b6000600282049050600182168061113a57607f821691505b6020821081141561114e5761114d6111fd565b5b50919050565b61115d8261125b565b810181811067ffffffffffffffff8211171561117c5761117b61122c565b5b80604052505050565b6000611190826110c4565b91507fffffffffffffffffffffffffffffffffffffffffffffffffffffffffffffffff8214156111c3576111c26111ce565b5b600182019050919050565b7f4e487b7100000000000000000000000000000000000000000000000000000000600052601160045260246000fd5b7f4e487b7100000000000000000000000000000000000000000000000000000000600052602260045260246000fd5b7f4e487b7100000000000000000000000000000000000000000000000000000000600052604160045260246000fd5b6000601f19601f8301169050919050565b611275816110c4565b811461128057600080fd5b5056fea26469706673582212209423bb4b9cc51cbab21f5065d00c90db46694e3b471dcd682c1ec2dd886376af64736f6c63430008040033",
  "linkReferences": {},
  "deployedLinkReferences": {}
}