{
  "_format": "hh-sol-artifact-1",
  "contractName": "Dwitter",
  "sourceName": "contracts/Dwitter.sol",
  "abi": [
    {
      "inputs": [],
      "stateMutability": "nonpayable",
      "type": "constructor"
    },
    {
      "anonymous": false,
      "inputs": [
        {
          "indexed": false,
          "internalType": "uint256",
          "name": "id",
          "type": "uint256"
        },
        {
          "indexed": false,
          "internalType": "string",
          "name": "hash",
          "type": "string"
        },
        {
          "indexed": false,
          "internalType": "string",
          "name": "description",
          "type": "string"
        },
        {
          "indexed": false,
          "internalType": "uint256",
          "name": "likes",
          "type": "uint256"
        },
        {
          "indexed": false,
          "internalType": "address",
          "name": "author",
          "type": "address"
        }
      ],
      "name": "TweetCreated",
      "type": "event"
    },
    {
      "anonymous": false,
      "inputs": [
        {
          "indexed": false,
          "internalType": "uint256",
          "name": "id",
          "type": "uint256"
        },
        {
          "indexed": false,
          "internalType": "string",
          "name": "hash",
          "type": "string"
        },
        {
          "indexed": false,
          "internalType": "string",
          "name": "description",
          "type": "string"
        },
        {
          "indexed": false,
          "internalType": "uint256",
          "name": "likes",
          "type": "uint256"
        },
        {
          "indexed": false,
          "internalType": "address",
          "name": "author",
          "type": "address"
        }
      ],
      "name": "TweetLiked",
      "type": "event"
    },
    {
      "inputs": [
        {
          "internalType": "uint256",
          "name": "_id",
          "type": "uint256"
        }
      ],
      "name": "LikeTweet",
      "outputs": [],
      "stateMutability": "payable",
      "type": "function"
    },
    {
      "inputs": [],
      "name": "name",
      "outputs": [
        {
          "internalType": "string",
          "name": "",
          "type": "string"
        }
      ],
      "stateMutability": "view",
      "type": "function"
    },
    {
      "inputs": [
        {
          "internalType": "string",
          "name": "_imgHash",
          "type": "string"
        },
        {
          "internalType": "string",
          "name": "_description",
          "type": "string"
        }
      ],
      "name": "postTweet",
      "outputs": [],
      "stateMutability": "nonpayable",
      "type": "function"
    },
    {
      "inputs": [],
      "name": "tweetCount",
      "outputs": [
        {
          "internalType": "uint256",
          "name": "",
          "type": "uint256"
        }
      ],
      "stateMutability": "view",
      "type": "function"
    },
    {
      "inputs": [
        {
          "internalType": "uint256",
          "name": "",
          "type": "uint256"
        }
      ],
      "name": "tweets",
      "outputs": [
        {
          "internalType": "uint256",
          "name": "id",
          "type": "uint256"
        },
        {
          "internalType": "string",
          "name": "hash",
          "type": "string"
        },
        {
          "internalType": "string",
          "name": "description",
          "type": "string"
        },
        {
          "internalType": "uint256",
          "name": "likes",
          "type": "uint256"
        },
        {
          "internalType": "address",
          "name": "author",
          "type": "address"
        }
      ],
      "stateMutability": "view",
      "type": "function"
    }
  ],
  "bytecode": "0x608060405260006001553480156200001657600080fd5b506040518060400160405280600781526020017f447769747465720000000000000000000000000000000000000000000000000081525060009080519060200190620000649291906200006b565b5062000180565b82805462000079906200011b565b90600052602060002090601f0160209004810192826200009d5760008555620000e9565b82601f10620000b857805160ff1916838001178555620000e9565b82800160010185558215620000e9579182015b82811115620000e8578251825591602001919060010190620000cb565b5b509050620000f89190620000fc565b5090565b5b8082111562000117576000816000905550600101620000fd565b5090565b600060028204905060018216806200013457607f821691505b602082108114156200014b576200014a62000151565b5b50919050565b7f4e487b7100000000000000000000000000000000000000000000000000000000600052602260045260246000fd5b610df180620001906000396000f3fe60806040526004361061004a5760003560e01c806306fdde031461004f5780633c64a17d1461007a5780634a7782b3146100a3578063ce284544146100ce578063e8d857b0146100ea575b600080fd5b34801561005b57600080fd5b5061006461012b565b6040516100719190610a03565b60405180910390f35b34801561008657600080fd5b506100a1600480360381019061009c9190610908565b6101b9565b005b3480156100af57600080fd5b506100b861034c565b6040516100c59190610a25565b60405180910390f35b6100e860048036038101906100e39190610974565b610352565b005b3480156100f657600080fd5b50610111600480360381019061010c9190610974565b610682565b604051610122959493929190610aa1565b60405180910390f35b6000805461013890610c5a565b80601f016020809104026020016040519081016040528092919081815260200182805461016490610c5a565b80156101b15780601f10610186576101008083540402835291602001916101b1565b820191906000526020600020905b81548152906001019060200180831161019457829003601f168201915b505050505081565b60008151116101c757600080fd5b600073ffffffffffffffffffffffffffffffffffffffff163373ffffffffffffffffffffffffffffffffffffffff16141561020157600080fd5b6001600081548092919061021490610cbd565b91905055506040518060a001604052806001548152602001838152602001828152602001600081526020013373ffffffffffffffffffffffffffffffffffffffff168152506002600060015481526020019081526020016000206000820151816000015560208201518160010190805190602001906102949291906107e8565b5060408201518160020190805190602001906102b19291906107e8565b506060820151816003015560808201518160040160006101000a81548173ffffffffffffffffffffffffffffffffffffffff021916908373ffffffffffffffffffffffffffffffffffffffff1602179055509050507fb679e0ffe797105ec78ea8c7c5e0030928d6ace4ac753ac05491016f85c0d51b6001548383600033604051610340959493929190610a40565b60405180910390a15050565b60015481565b60008111801561036457506001548111155b61036d57600080fd5b6000600260008381526020019081526020016000206040518060a0016040529081600082015481526020016001820180546103a790610c5a565b80601f01602080910402602001604051908101604052809291908181526020018280546103d390610c5a565b80156104205780601f106103f557610100808354040283529160200191610420565b820191906000526020600020905b81548152906001019060200180831161040357829003601f168201915b5050505050815260200160028201805461043990610c5a565b80601f016020809104026020016040519081016040528092919081815260200182805461046590610c5a565b80156104b25780601f10610487576101008083540402835291602001916104b2565b820191906000526020600020905b81548152906001019060200180831161049557829003601f168201915b50505050508152602001600382015481526020016004820160009054906101000a900473ffffffffffffffffffffffffffffffffffffffff1673ffffffffffffffffffffffffffffffffffffffff1673ffffffffffffffffffffffffffffffffffffffff168152505090506000816080015190508073ffffffffffffffffffffffffffffffffffffffff166108fc349081150290604051600060405180830381858888f1935050505015801561056c573d6000803e3d6000fd5b5034826060015161057d9190610b74565b82606001818152505081600260008581526020019081526020016000206000820151816000015560208201518160010190805190602001906105c09291906107e8565b5060408201518160020190805190602001906105dd9291906107e8565b506060820151816003015560808201518160040160006101000a81548173ffffffffffffffffffffffffffffffffffffffff021916908373ffffffffffffffffffffffffffffffffffffffff1602179055509050507f4343a18e7d98bf76f9eb6e4630fa3fdb100f9a2d2e8dc06e78340b98ca66e4cc8383602001518460400151856060015185604051610675959493929190610aa1565b60405180910390a1505050565b60026020528060005260406000206000915090508060000154908060010180546106ab90610c5a565b80601f01602080910402602001604051908101604052809291908181526020018280546106d790610c5a565b80156107245780601f106106f957610100808354040283529160200191610724565b820191906000526020600020905b81548152906001019060200180831161070757829003601f168201915b50505050509080600201805461073990610c5a565b80601f016020809104026020016040519081016040528092919081815260200182805461076590610c5a565b80156107b25780601f10610787576101008083540402835291602001916107b2565b820191906000526020600020905b81548152906001019060200180831161079557829003601f168201915b5050505050908060030154908060040160009054906101000a900473ffffffffffffffffffffffffffffffffffffffff16905085565b8280546107f490610c5a565b90600052602060002090601f016020900481019282610816576000855561085d565b82601f1061082f57805160ff191683800117855561085d565b8280016001018555821561085d579182015b8281111561085c578251825591602001919060010190610841565b5b50905061086a919061086e565b5090565b5b8082111561088757600081600090555060010161086f565b5090565b600061089e61089984610b27565b610b02565b9050828152602081018484840111156108b657600080fd5b6108c1848285610c18565b509392505050565b600082601f8301126108da57600080fd5b81356108ea84826020860161088b565b91505092915050565b60008135905061090281610da4565b92915050565b6000806040838503121561091b57600080fd5b600083013567ffffffffffffffff81111561093557600080fd5b610941858286016108c9565b925050602083013567ffffffffffffffff81111561095e57600080fd5b61096a858286016108c9565b9150509250929050565b60006020828403121561098657600080fd5b6000610994848285016108f3565b91505092915050565b6109a681610bca565b82525050565b6109b581610c06565b82525050565b60006109c682610b58565b6109d08185610b63565b93506109e0818560208601610c27565b6109e981610d93565b840191505092915050565b6109fd81610bfc565b82525050565b60006020820190508181036000830152610a1d81846109bb565b905092915050565b6000602082019050610a3a60008301846109f4565b92915050565b600060a082019050610a5560008301886109f4565b8181036020830152610a6781876109bb565b90508181036040830152610a7b81866109bb565b9050610a8a60608301856109ac565b610a97608083018461099d565b9695505050505050565b600060a082019050610ab660008301886109f4565b8181036020830152610ac881876109bb565b90508181036040830152610adc81866109bb565b9050610aeb60608301856109f4565b610af8608083018461099d565b9695505050505050565b6000610b0c610b1d565b9050610b188282610c8c565b919050565b6000604051905090565b600067ffffffffffffffff821115610b4257610b41610d64565b5b610b4b82610d93565b9050602081019050919050565b600081519050919050565b600082825260208201905092915050565b6000610b7f82610bfc565b9150610b8a83610bfc565b9250827fffffffffffffffffffffffffffffffffffffffffffffffffffffffffffffffff03821115610bbf57610bbe610d06565b5b828201905092915050565b6000610bd582610bdc565b9050919050565b600073ffffffffffffffffffffffffffffffffffffffff82169050919050565b6000819050919050565b6000610c1182610bfc565b9050919050565b82818337600083830152505050565b60005b83811015610c45578082015181840152602081019050610c2a565b83811115610c54576000848401525b50505050565b60006002820490506001821680610c7257607f821691505b60208210811415610c8657610c85610d35565b5b50919050565b610c9582610d93565b810181811067ffffffffffffffff82111715610cb457610cb3610d64565b5b80604052505050565b6000610cc882610bfc565b91507fffffffffffffffffffffffffffffffffffffffffffffffffffffffffffffffff821415610cfb57610cfa610d06565b5b600182019050919050565b7f4e487b7100000000000000000000000000000000000000000000000000000000600052601160045260246000fd5b7f4e487b7100000000000000000000000000000000000000000000000000000000600052602260045260246000fd5b7f4e487b7100000000000000000000000000000000000000000000000000000000600052604160045260246000fd5b6000601f19601f8301169050919050565b610dad81610bfc565b8114610db857600080fd5b5056fea2646970667358221220576eee757f443110f8555952a13fc657de17d98819480219a28177ef70dcfc3a64736f6c63430008040033",
  "linkReferences": {},
  "deployedLinkReferences": {}
}